:020000040001F9
:10B00000A8390020D5B00100EFB00100F1B0010077
:10B010000000000000000000000000000000000030
:10B02000000000000000000000000000F3B001007C
:10B030000000000000000000F5B00100F7B00100C2
:10B040009DB40100F9B0010049B60100F9B001005A
:10B05000F9B0010000000000E1B20100F9B0010008
:10B06000F9B00100F9B00100F9B00100F9B0010038
:10B07000F9B00100F9B00100F9B00100F9B0010028
:10B08000F9B00100F1B40100F9B00100F9B001001C
:10B0900081B50100F9B0010089B50100F9B00100E6
:10B0A000F9B00100F9B0010000000000000000004C
:10B0B0000000000000000000000000000000000090
:10B0C0000348854600F0AEF800480047FDFD01004A
:10B0D000A83900200321094802680A430260084891
:10B0E00002680A4302600748804707480047FEE7B6
:10B0F000FEE7FEE7FEE7FEE7FEE70000240500406E
:10B1000054050040A9B50100C1B0010030B50B469F
:10B11000014600202022012409E00D46D5409D4231
:10B1200005D31D469540491B2546954040191546B7
:10B13000521E002DF1DC30BD00487047EC43020088
:10B1400003460B439B0703D009E008C9121F08C040
:10B15000042AFAD203E00B780370401C491C521EEB
:10B16000F9D27047D2B201E00270401C491EFBD2F6
:10B1700070470022F6E710B513460A460446194602
:10B18000FFF7F0FF204610BD421C0178401C00294B
:10B19000FBD1801A704730B504460020034600E01A
:10B1A0005B1C934203D2E05CCD5C401BF8D030BD09
:10B1B00003460A780270401C491C002AF9D118463F
:10B1C0007047F0B51FB40646002082B00546402403
:10B1D000019100901BE0019922460F46304600F095
:10B1E00043F8049A059B801A994110D310461946DA
:10B1F000224600F029F8361A8F4101972246012095
:10B200000021009F00F020F838184D4100902046A2
:10B21000641E0028DFDC019B00982946324607B0F7
:10B22000F0BD0000064C0125064E05E0E36807CCA2
:10B230002B430C3C98471034B442F7D3FFF744FF3C
:10B24000CC440200EC44020010B5202A04DB014685
:10B25000203A9140002010BD914020239C1A0346C3
:10B26000E3401943904010BD10B5202A04DB084686
:10B27000203AD040002110BD0B46D340D0402024BE
:10B28000A21A91400843194610BD70B58C18057874
:10B29000401C6B075B0F01D10378401C2A1106D1BB
:10B2A0000278401C03E006780E70401C491C5B1EAF
:10B2B000F9D12B0705D40023521E0DD40B70491C65
:10B2C000FAE70378401CCB1A921C03E01D780D703E
:10B2D000491C5B1C521EF9D5A142D8D3002070BD79
:10B2E000F0B50024FF268BB00136012527460694D1
:10B2F000304605F01DF9002807D054484068284220
:10B3000003D0304605F00CF92C43361D6D007F1C30
:10B31000B6B2042FECD3FF257D35284605F008F999
:10B32000002809D0284605F0FBF86807044306AA60
:10B330000121002005F0E0F8454D200714D0012739
:10B34000002627420CD04348B20011180869096949
:10B35000C004C00E8903AA58890F002A00D0904764
:10B360007F00761C042EECD3002C6DDA00200890B0
:10B37000401E63E0281940300778B906890E009115
:10B3800000214156491C49D009A9009804F0E2FE69
:10B39000002843D0B8090190009802F0F7FB800024
:10B3A0002F580198002F02D0032802D00DE0032867
:10B3B00034D1009808ABC20841079446985C490F05
:10B3C00001228A40104362469854009805210907DB
:10B3D00080004018072109024018006806A9800370
:10B3E000800F0290009804F0B5FE0028029802D069
:10B3F000022802D012E0032810D10198032808D1B6
:10B40000029802281ED00221009805F058F8761CF8
:10B41000F6B2002F02D001990098B847641C042CA2
:10B42000A8D3002E10D06A460121002005F064F850
:10B4300006990098884207D006900898002634465E
:10B44000099097E70321DFE70BB0F0BD00630040F0
:10B45000F82C0020006500408307FF22DB0E9A4095
:10B460008907090E994000280BDA0007000F0838F9
:10B47000830808489B001818C36993430B43C361B2
:10B480007047830804489B001B18186890430843C2
:10B490001860704700ED00E000E400E0F8B5FF2020
:10B4A000013004F05FFE002401250E4E0E4F0028EF
:10B4B00007D00E4804600120B0607D70002002F0CB
:10B4C000F3FBFF20053004F04DFE002808D00748AC
:10B4D000001D04600220B060BD70012002F0E4FB9A
:10B4E000F8BD000000030040E42C002000010040F3
:10B4F00010B506490020086048608860C8600349AC
:10B5000040390860486008F04DFB10BD4011014013
:10B5100010B503480078002801D100F09FF810BD55
:10B520002C31002070B50E461821484313491446AB
:10B530004518E86A1835002804D001280FD00228E1
:10B5400005D113E0284600F0BFF8A04201D2002444
:10B5500011E022463146284600F0F1F80BE028467B
:10B5600000F0B2F8A042F4D20446F2E73146284691
:10B5700000F0B5F80446204670BD00002C310020D4
:10B5800010B508F081FA10BD10B5064840680028D3
:10B5900005D08047002801D000F0B6FD10BD04F0B2
:10B5A000A9F810BD8822002010B504F0F1F8002899
:10B5B00005D01F491D484860C8131E4988611E48B0
:10B5C000018CC9B201290BD1828C120708D1028DDE
:10B5D0001206120F042A03D1828D1206120F0AD00E
:10B5E000012921D1818C09071ED1018D0906090F7E
:10B5F0000A2904D007E0114A01219160F5E7828D04
:10B600001206120F05D00D290ED1808D0006000FF5
:10B610000AD10B480168012904D00A490160016878
:10B620000129FCD1C021416110BD0000DFFF07C02E
:10B6300000050040006C0040C00F00F00006004014
:10B6400000EC06407593000010B50249024808F06E
:10B650001EFB10BD402D00200020004010B5124CF4
:10B6600002202061606111A0A0611348E061012007
:10B67000400220620020A06260620CA1A164214609
:10B68000E0621039E16410212165A0656065E06524
:10B690000AA1E01DFFF78CFD09A12046FFF788FDF8
:10B6A0002020A07110BD00002C3100205465726D67
:10B6B000696E616C000000001C2F00205254540081
:10B6C00053454747455200000269C1688A4203D882
:10B6D0008068401A801800E0501A401E7047F7B585
:10B6E000064682B000200090F46817463069A042F8
:10B6F00001D9051B02E0B168201A0D1AB0686D1E51
:10B70000001BA84200D80546BD4200D33D467068E4
:10B710002A4600190399FFF713FD00987F1B401973
:10B7200000900398641940190390B068A04200D1BA
:10B730000024F460002FD9D1009805B0F0BDF7B512
:10B74000C668174604468068851B6068BD4206D9F6
:10B7500080190199FFF7F4FCF019E060FEBD2A465C
:10B7600080190199FFF7ECFC01987E1B41193246C4
:10B770006068FFF7E5FCE660FEBD00000FB41CB595
:10B780000A46521E0192009007A9064B6A46069887
:10B7900000F034F8009A002111701CBC08BC04B001
:10B7A0001847000071BC010030B47446641E25784F
:10B7B000641CAB4200D21D46635D5B00E31830BCE5
:10B7C000184702E008C8121F08C1002AFAD17047C2
:10B7D0007047002001E001C1121F002AFBD1704711
:10B7E000202804DA012181400348014201D00120D0
:10B7F0007047002070470000FC06FFBCFFB591B009
:10B800000F460546002606E025280AD0149A13990B
:10B8100090476D1C761C28780028F5D1304615B06D
:10B82000F0BD002400940121F34A029400E0044397
:10B830006D1C2B780846203B98401042F7D12878A1
:10B840002A280ED0022128780246303A092A15D833
:10B85000009A0A235A43303A80180C436D1C00901A
:10B86000F1E701CF0090002805DA012040030443EE
:10B87000009840420090022004436D1C28782E2836
:10B8800015D10420044368786D1C2A280AD101CF01
:10B890006D1C02900BE002990A2251433039401886
:10B8A0006D1C02902878014630390929F3D928788F
:10B8B0006C2810D006DC4C281AD068280ED06A28D4
:10B8C00017D104E0742813D07A2812D110E0012097
:10B8D000400504430CE00121090501E003210905AD
:10B8E0000C436978814203D10120000524186D1CA6
:10B8F0006D1C287803906E281ED00CDC632831D094
:10B9000004DC00288AD0582811D1B2E064287BD00A
:10B9100069280CD178E073282DD004DC6F2870D012
:10B92000702804D1A7E075286CD078286BD0149AC1
:10B9300013999047761C62E06002400F022807D0FE
:10B9400003280AD0042838680AD006603F1D56E054
:10B950003868F11706604160F8E738680680F5E757
:10B960000670F3E73878694608740020487404A824
:10B970000390012003E0386803900020C0433F1D7E
:10B9800061070FD5002101E00199491C029A01913C
:10B99000914213DA8142F7DB019A0399895C00290D
:10B9A000F2D10BE0002101E00199491C0191814293
:10B9B000FADB019A0399895C0029F5D10199009875
:10B9C000139A401A00902146149B00F03BF901990C
:10B9D0008019461807E0039803990078491C0391E1
:10B9E000149A139990470198401E0190401CF2D17F
:10B9F0002146149B139A009800F014F986196D1CC7
:10BA000009E741E033E034E00A2000210490059189
:10BA10006002410F022905D001CFC21794460329C5
:10BA200005D007E0FF1DFF08FF0003CF06E000B2CE
:10BA3000C2179446042902D140B2C1178C46002295
:10BA40006146944506DA0A460021404291418C46FF
:10BA50002D2102E0210504D52B216A461176012112
:10BA600003E0E10701D02021F7E7019154E00A202B
:10BA70000BE0102009E01020049000210420044372
:10BA800008200591029003E0082000210591049010
:10BA90006002410F022905D001CF002294460329FC
:10BAA00006D006E0FF1DFF08FF0003CF8C4603E031
:10BAB00080B2042900D1C0B20021019121072BD509
:10BAC0000399702906D0049A1021059B4A401A4315
:10BAD00005D00EE040216A461176012108E061465A
:10BAE000014306D030216A4611760399517602212E
:10BAF0000191049A0821059B4A401A430CD16146E2
:10BB0000014301D1610707D530216A461176012131
:10BB100001910299491E02910399582904D037A135
:10BB200003910FA90F910DE039A1F9E76146059B3B
:10BB3000049AFFF746FB039B8C469B5C0F9A521EB0
:10BB40000F92137061460143F0D10F9807A9081AAC
:10BB500020300390600704D501200004844302983C
:10BB600001E0012002900399884201DD401A00E0C3
:10BB7000002041180290019809180098401A00907E
:10BB8000E00306D42146149B139A009800F05AF85B
:10BB900086190020049008E006A9085C149A1399FD
:10BBA00090470498401C761C049001998842F3DB6E
:10BBB000E0030CD52146149B139A009800F042F83C
:10BBC000861904E0149A302013999047761C029944
:10BBD000481E02900029F5DC08E00F980F990078C4
:10BBE000491C0F91149A13999047761C0399481E8B
:10BBF00003900029F1DCFBE60928010030313233E3
:10BC00003435363738396162636465660000000098
:10BC10003031323334353637383941424344454682
:10BC200000000000F8B5044600251E4617468804AB
:10BC300004D405E039462020B0476D1C641EF9D5B8
:10BC40002846F8BDFFB50446002581B01E46C8034E
:10BC500001D5302700E02027880404D505E03846C8
:10BC60000399B0476D1C641EF9D5284605B0F0BD98
:10BC70004A68002A06D00A68531C0B601070486896
:10BC8000401E4860704710B500280CD000290AD02B
:10BC900002780B789A4206D10622401C491CFFF715
:10BCA0007AFA002801D0002010BD012010BDF7B5A0
:10BCB00084B0064600251788158020300290407B0E
:10BCC0001446002806D03A462146059801F0E2F8CD
:10BCD000050009D1B078002823D005988646208831
:10BCE000001DB84202D90C2007B0F0BD684679DFCC
:10BCF0000028F9D121880320724650542088192148
:10BD0000401C80B22080115420887146401C80B2B3
:10BD1000208041186846008808F04DF821884018B6
:10BD20002080F078002817D0218803230A46F35694
:10BD3000C91C0598B942D6D8022181542188012214
:10BD4000491C89B2218042542188491C89B2218032
:10BD500043542088401C20807068002817D0218818
:10BD60000023C3560A46C91C0598B942BBD8022114
:10BD7000815421880A22491C89B221804254218899
:10BD8000491C89B2218043542088401C208030897E
:10BD900000280AD00094304601970622022108307C
:10BDA000059B08F061F805009ED1308A00280AD072
:10BDB000009430460197072203211030059B08F0BC
:10BDC00053F8050090D1308B00280AD000943046FB
:10BDD0000197152214211830059B08F045F805003D
:10BDE00082D1306A002806D03B462246059901F0F0
:10BDF000C3FF0500D8D1706A002806D03B46224612
:10BE0000059904F0DCF80500CED10298007B0028EB
:10BE100007D03B4622463046059907F043FA050015
:10BE2000C2D13078002807D03B46224630460599DB
:10BE300004F0F9F80500B7D1284655E7174A002164
:10BE4000535C002B01D0012203E0491C0629F7D3E3
:10BE500000221349012806D002280BD0032810D055
:10BE6000042818D112E04878002803D0002A01D015
:10BE7000012070478878002803D0002A01D00220D2
:10BE80007047C878002801D003207047087900283F
:10BE900001D0042070470020704700004521002099
:10BEA0009C26002010B501220221002001F08CFC0C
:10BEB000002801D0072812D107220221012001F019
:10BEC00083FC002801D0072809D100210A22084656
:10BED00001F07AFC002801D0072800D1002010BD15
:10BEE00010B598B03C2101A8FFF743F9022268463B
:10BEF0000271012406218471C17184821248069066
:10BF0000202110A8FFF735F910A804704470002113
:10BF1000817012911391C470282014901E201590E6
:10BF200010A804711920C0011690B420179007487A
:10BF30000090074B10AA01A800F0D4FB002801D004
:10BF400000F0E2F818B010BDF01F0020DDC60100BF
:10BF500029080200F8B51E4E102132461D48FFF791
:10BF600001F91D4C0820E0601A48254600900C3568
:10BF70000827304606F072F80021296007E029689A
:10BF8000009A4B00491C2960D05206F067F8B04275
:10BF900001D07F1EF3D20F48E16806F065FA002851
:10BFA00001D000F0B1F80B48E16805F095FE0628D5
:10BFB00003D0002801D000F0A7F80020A0700320D3
:10BFC00000F0B4FC002801D000F09EF8F8BD00009D
:10BFD000FFFF0000E0250020E81F0020F0B50F461D
:10BFE0008DB0002116466D460F24621A825C6A5499
:10BFF000491C1029F9D328460D211030FFF7B9F854
:10C000000020221A395C5219401C11740328F8D3FD
:10C0100068464DDF0020211A491920310978315432
:10C02000401C0328F7D30DB0F0BD10B5022001F07D
:10C0300075FA10BD70B50024064D06E06968E00091
:10C04000085C012104F022F9641C28788442F5D3AD
:10C05000002070BD1C220020F8B515460C4606468F
:10C06000052A01D20720F8BD04F0E8F9002803D121
:10C0700004F0B6F90028F6D1104900204E600C708B
:10C08000C8608D6008610E4D0DE0E00069688019A0
:10C09000009181786A46517000780A4A694604F036
:10C0A00041F90028DFD12046641EE4B20028ECD11B
:10C0B000054A0021024800F0B5F8F8BD1C22002016
:10C0C0004C43020061ED0100FDDE010006A10120EC
:10C0D00004F068FBBFF34F8F0A490948C860BFF3FB
:10C0E0004F8F00BFFDE700004150505F4552524F57
:10C0F000523A4552524F523A466174616C0D0A00F1
:10C100000400FA0500ED00E00EB500210290009158
:10C110006A4601910148FFF7D9FF0EBD01400000BA
:10C12000F7B5244C82B060880E4681423FD8002586
:10C130006846214F057000F035F922786078A188B3
:10C14000884201DA401C00E00020C0B2904204D1D5
:10C150006846007800F044F927E065786078884206
:10C1600001DA401C00E0002060706846007800F0B2
:10C1700037F9BD4219D0A068EF000499C151029966
:10C1800000290CD0002E0AD0608832464543E06872
:10C190002818FEF7D5FFA0683818868002E0002135
:10C1A00038188180002005B0F0BD0420FBE709208D
:10C1B000F9E7000030220020FFFF000010B50D4C11
:10C1C00003E0401C00E0002020702078617881426C
:10C1D0000FD021786088E26848438018A368CA00BD
:10C1E000D1189A58898890472078A1888842EADA3D
:10C1F000E7E710BD3022002030B5CB0008339DB2F8
:10C2000093070024002B01D0072030BD044B9A6017
:10C210005219DA605C701C7058809980002030BD23
:10C2200030220020094B5B68002B07D0002A07D082
:10C23000002805D00068037C002B03D0082070473D
:10C24000072070474174426100207047502200204F
:10C2500010B50446082902D00020FFF755FF2168D9
:10C260006068884710BD00001CB501910090034A2A
:10C2700008216846FFF754FF1CBD000051C20100B1
:10C28000FFB507469007002581B01E4614460028DA
:10C2900025D1002C23D006F0F9FC3046114EF06079
:10C2A00030461030057045700299817044607560A9
:10C2B000357001240C487570240504600321142096
:10C2C000FFF7CAF809480460094CA7600321112050
:10C2D000FFF7C2F86068B060002005B0F0BD07202D
:10C2E000FBE700004022002080E200E000E100E0E7
:10C2F00000150140FEB51F4B5B68002B30D00028B5
:10C300002ED0052901D20720FEBD4369002B27D07E
:10C31000437C012B26D00027029104460025694664
:10C3200016460D70684600F03DF801A807F086FD3E
:10C33000002819D0012101700F49446049688160CB
:10C34000029907614661C16068460A4900794870F0
:10C350006846007800F044F807F0D8FB2846FEBD98
:10C360000820FEBD0F46D7E768460425007800F098
:10C3700037F8F3E7502200200015014010B50849B6
:10C38000496800290AD0002808D04169002905D051
:10C3900000210174022107F0E1FB10BD082010BD4F
:10C3A0005022002030B5EFF3108172B6094A54686C
:10C3B0000123002C04D00370002900D162B630BDE7
:10C3C0005360054B1D68054C254015601C6000221C
:10C3D0000270F1E76422002080E100E0FC06FFBC6F
:10C3E00008494A68002A0CD000280AD1EFF31080CF
:10C3F00072B60A68044B1A6000224A60002800D115
:10C4000062B670476422002000E100E0F0B5044607
:10C410008BB0008800F0DAFC0590208803F062F809
:10C420000646A0680090657A684605741E4F20880D
:10C430000022397800F01AFD0598002831D0607983
:10C44000400710D50721304605F03CF8002813D0EE
:10C45000082269460A7422884A828E82069004A8BD
:10C4600001F072FE08E02088B97800F0EDFC0028A9
:10C4700002D0304603F020F803216846017121887C
:10C48000C18060794007C10F68460172A0794007FA
:10C49000C10F6846417201788172C57201A801F02E
:10C4A00053FE0BB0F0BD0000B821002000B585B0F0
:10C4B00014216846FEF75DFE0021012268460091C6
:10C4C00002710291642101731146203141731146BA
:10C4D00020318173002001466846C1731146203126
:10C4E00001746946044800F011FB002801D0FFF7F1
:10C4F0000BFE05B000BD0000B8250020F0B50546D4
:10C50000007D002493B00E4600280DD00120014686
:10C510006846103103940173717B4173817BF9206C
:10C5200001406846891C81731C2104A8FEF721FE86
:10C530006946087C02210843694608742A7DEF2178
:10C54000002A02D01022104300E008406A4610740E
:10C55000059407940894287D002800D003A809902A
:10C5600001270A9410469771304A82800094B27B6A
:10C570000270F27B42708078F9221040F722801C12
:10C580001040EF2108404108490068468170317B26
:10C59000017214210BA8FEF7ECFD01A80B90684670
:10C5A0000C908786C486078702A80F90A888AB1DC9
:10C5B0000BAA04A9A2DF002835D1B068002830D02A
:10C5C000684687711A4981800094317C017000208F
:10C5D0000146684641708078F9210840F721801CA7
:10C5E0000840EF210840410849006846817011A8C1
:10C5F000B16800F09EFE064614210BA8FEF7B9FDB7
:10C6000001A80B9068460C908686C486068711A800
:10C610000F902A46E8880E320BA9A3DF002802D12A
:10C6200000E0EC81002013B0F0BD0000192A0000EA
:10C630000829000010B50B490B4806F075FDC1B282
:10C640000848183800F028FA002809D0082807D030
:10C650000649884204D00649884201D0FFF754FDBC
:10C6600010BD0000D0250020042000200430000070
:10C6700001340000F0B50C4693B01F216A461180CA
:10C68000072600279180002809D0C17849070DD5D9
:10C6900002A9FFF70CFB002809D102AD01E000253B
:10C6A0001780002C0ED0E078002802D0304613B05E
:10C6B000F0BD01AA0AA92046FFF7F9FA0028F6D131
:10C6C0000AAA02E068460022878068468088C3B2D2
:10C6D00068460088C1B2284672DFE8E710B5FFF768
:10C6E00013FD10BDFFB581B01E460A9F134604001E
:10C6F00047D0002B45D0504D012028700020E87015
:10C70000202219464D48FEF71BFD00206F61C043F3
:10C710002E612881284607211830FEF72AFD474858
:10C720003C212030FEF725FD44482178203001705F
:10C73000A1788170E178C170617841703F4A656984
:10C7400023695563114613632031E368A268CB6007
:10C750008A603A49E369A269CB638A63616A002906
:10C760001AD001463C310246483241628A60636A0F
:10C770001B880B80616A436A898899800021436A1B
:10C7800007E00E2005B0F0BD656AAD686D5C5554DC
:10C79000491C9D888D42F7D8A16A00291CD0274AE0
:10C7A000943211460C398A608162A36A9B888B801F
:10C7B000A16A836A098819800021836A04E0A56A56
:10C7C000AD686D5C5554491C9D888D42F7D82C216D
:10C7D0000A5D1A4940310A73216A002909D01649B5
:10C7E0000A310162226A52884A80216A026A0988F3
:10C7F00011806168002900D04160104A0E49002074
:10C80000B3322031C3001B1A85009B180C68401CF2
:10C8100063510828F6DB094A0020EB32030185004A
:10C820009B188C68401C63510828F7DB0348029969
:10C830002030FFF71FFFA5E72C2100209C260020B9
:10C8400010B50188134C102915D0112919D01B29B6
:10C8500010D1007A00280DD1E0780521401CFEF7A8
:10C8600055FC084600F062F8002803D061690029F1
:10C8700000D0884710BD817D0129FBD180882081AF
:10C8800010BD00216171808821898842F8D1012082
:10C89000E8E700002C21002010B5022801D0032871
:10C8A0000ED1084C607800280AD000206070E07833
:10C8B00000F03CF8002803D06169002900D08847C7
:10C8C00010BD00002C21002010B5084A1179002964
:10C8D00009D0002111710146044807221830FEF7E3
:10C8E0002FFC002010BD082010BD00002C210020CE
:10C8F00010B574DF0B4C012060710B490620C87025
:10C9000000210948FFF7B6FE002809D1E07800F0C1
:10C910000DF8002803D06169002900D08847002065
:10C9200010BD00002C210020BC260020F1B53F4C9A
:10C9300088B0207800280AD00898E07006A801F096
:10C940002DFF06980125002804D065706AE00820B4
:10C9500009B0F0BD3548002707211830FEF709FC63
:10C96000334E7078002802D0E078012807D0B078E4
:10C9700000280CD0E078012801D0022807D12169D5
:10C98000002903D025710820884700E02771089806
:10C99000FFF754FAE0702169002909D0032801D07B
:10C9A000042805D13078002802D06079002811D001
:10C9B000A77118216846FEF7DCFB6846077007720E
:10C9C000E1781A480B001830FEF7EEFE052E080F2E
:10C9D000191D2000A57107208847EAE7A57001907E
:10C9E000684605704782078213E00221A17001901A
:10C9F00068460570B18941823189018209E0684643
:10CA000006F09CFC02E0684606F0C4FCE0780028D2
:10CA100003D0684673DF00289AD12169002901D02C
:10CA2000A0788847002093E7A770F6E72C21002024
:10CA30009C260020FFB517480F46817981B01E461D
:10CA4000002907D000210446817120342771267304
:10CA50000D460DE0082005B0F0BD2068A900405843
:10CA6000E9004A1B019951180722FEF769FB6D1C6A
:10CA7000BD42F2D3002509E0A068A90040580399FF
:10CA80002A0151181022FEF75BFB6D1CB542F3D34F
:10CA90000020E0E72C21002073B586B004002FD0E1
:10CAA0006A46217C127F0020914227D00025012672
:10CAB000684600950680458007A80190E188608A55
:10CAC0006A46A4DF002819D16846007F2074608A76
:10CAD0000D49884216D0207D002813D00295039579
:10CAE00004950595E18868460181867241888181B7
:10CAF000049001980590608A02A9A6DF08B070BD75
:10CB00000E20FBE70820F9E7FFFF000038B50D46CF
:10CB100004001AD0002D18D0286820600020C043DF
:10CB2000608228792075FF20207401216846817079
:10CB300007490180221D69460120A0DF002803D19A
:10CB400029462046FFF7DAFC38BD0E2038BD00002C
:10CB50000F18000038B5002824D0002922D00A88F8
:10CB6000102A1AD0112A1AD0502A1BD10446007D4F
:10CB7000002817D0C8886289891D904212D148893F
:10CB800002280FD1206800280CD008460C3000F095
:10CB9000C9FB002807D0002006E0898801E00021B9
:10CBA000C943418238BD0120694608702268204689
:10CBB000904738BD70B5054601461C220E48FEF769
:10CBC000BFFA0E4C002626702968002906D00822DC
:10CBD000201DFEF7B5FA201D7ADF02E00748001D90
:10CBE0007BDF002807D1401E60806670044A002168
:10CBF0000448FFF717FB70BD682800205C21002067
:10CC0000C13D0200C4420200F8B5214C0146028831
:10CC100000261E48E589102A13D01E4F112A1FD066
:10CC2000122A2BD0502A1AD1881DC988A94216D1A0
:10CC30004189022913D10C3000F074FB00280CD17B
:10CC400012E08A8804464280104808220C301831CD
:10CC5000FEF776FA6670002D01D101F0D5F8F8BD27
:10CC60000021C943418046703868FFF787FB0028E0
:10CC7000F5D0A1690029F2D08847F8BD0348082201
:10CC80000C300831FEF75CFAE7E700005C21002079
:10CC900068280020C442020010B503490A7D091D1E
:10CCA00006F0C9F810BD000084280020034B10B521
:10CCB0000246D97D181D06F0ABF810BD842800206F
:10CCC000034B10B50246197E181D06F0A1F810BDE1
:10CCD00084280020F0B5044602883A488DB0014609
:10CCE00015310191102A09D0112A50D01A2A4AD19F
:10CCF000217A090901294ED901234DE0027D417DA8
:10CD000005468A43011D07A806F095F8142207A9D5
:10CD100002A8FEF715FA00262A4837461430089074
:10CD20000AE0710002A8081883881D220097281DB8
:10CD3000089906F02DF8761C0298B042F1D8287DAB
:10CD4000A688C043C0B206F047F81F49884217D0F2
:10CD500040004019868001233246281D019906F0C3
:10CD60008DF801233246281D089906F087F8A07D2A
:10CD700002280AD000231349A2881631281D1DE07D
:10CD80000420FFF7C1F90DB0F0BD0123F3E7002344
:10CD9000A288001D12E000230A490546A288173127
:10CDA000001D06F06BF8207A0009022801D9012342
:10CDB00000E000230349A2881831281D06F05EF820
:10CDC000E1E7000084280020FFFF000070B50B4E53
:10CDD00005460024317D2A46301D06F019F800284A
:10CDE00009D0B17D2A46301D06F012F8002801D086
:10CDF000022400E00124204670BD000084280020A9
:10CE000010B50024204607F00DF8002805D0641C5A
:10CE1000E4B2182CF6D3182010BD04480122016892
:10CE2000A24011430160204610BD0000842800206C
:10CE300010B5044606F0F6FF002802D0014800199C
:10CE4000407E10BD8428002070B505460C4608467B
:10CE500006F0E8FF002806D003482A460119497E5B
:10CE6000001D05F0D5FF70BD8428002070B5064672
:10CE700015460C46084606F0D5FF002807D00448A2
:10CE80002B4601193246001D193105F0F7FF70BD20
:10CE9000842800207CB5054608880C46093090425D
:10CEA00001D90C207CBD684671DF0028FAD12188A9
:10CEB0000820685420881B21401C80B220802954FF
:10CEC000208800A9401C80B2208040190622013130
:10CED000FEF736F920886946801D80B220800978E7
:10CEE000002900D0012129542088401C20800020E6
:10CEF0007CBD00007FB504460121684681714A4926
:10CF000081804A4A01A90120A0DF00287ED1228821
:10CF100025463C35002A09D044482B46801C009009
:10CF20004348616800F03AFE00287BD12289002A3C
:10CF30000AD03E482B460A3000903D48E168401F29
:10CF400000F02CFE00286DD1228A002A0AD0374832
:10CF50002B461230009036486169001F00F01EFE1B
:10CF600000285FD1228B002A0AD030482B461A3085
:10CF700000902F48E169801E00F010FE002851D17A
:10CF8000228C002A0AD029482B46223000902848BB
:10CF9000616AC01E00F002FE002843D1228D002AE3
:10CFA0000AD022482B462A3000902148E16A401ED0
:10CFB00000F0F4FD002835D1216B00290ED002A825
:10CFC00006F03AFD19482B463230009018480822E6
:10CFD00002A9801F00F0E2FD002823D1606B002829
:10CFE0000BD012492B463A31009102790168104862
:10CFF000401C00F0D3FD002814D1A16B002910D0F3
:10D0000002A805F03DFA0948423000E00AE000902D
:10D0100007482B46072202A9273000F0BFFD002851
:10D0200000D1002004B070BD0A180000D2210020F9
:10D03000292A000010B50446FFF74CFE204605F0F3
:10D040001BF8204600F0F6FA204603F0B1FC20461B
:10D05000FFF7F6FB2046FFF7D7FD2146034800F017
:10D06000F9F821460248FFF775FD10BD4024002065
:10D07000B825002030B5FF300C464130C18E104B32
:10D0800085B0994219D06B461C8000210191029114
:10D0900003910491C5899D8001259D711981039398
:10D0A0000492C08E01A9A6DF002804D16946098830
:10D0B000A14200D00C2005B030BD0820FBE70000E5
:10D0C000FFFF0000FEB50546887A0C460A2805D801
:10D0D000207C0A2802D8207E0A2801D90720FEBD1C
:10D0E0002068286060686860A07AA874217C782035
:10D0F0004155217EDE204155FF2000217730C94374
:10D100004153012168468171384981802A4608329D
:10D1100001A90120A0DF0028E1D100262746203701
:10D1200009E0A06B7100415A28896A46A1DF0028F6
:10D13000D5D1761CF6B2B87DB042F2D8207A00285C
:10D1400002D1607A002806D021463C31284605F0FD
:10D15000B3F90028C3D12146284602F08DFA0028F1
:10D16000BDD12146284603F0AFFE0028B7D12146A5
:10D17000284601F0E7F90028B1D12146284605F0FC
:10D18000A5FC0028ABD1207A002812D02846FF3019
:10D190004F3023460090433308221549284600F0BB
:10D1A00009F900289BD12146284600F05BF90028A8
:10D1B00095D1607A00280DD02846FF305F300C49A9
:10D1C00023460090403308221131284600F0F2F83F
:10D1D000002884D12146284601F028FF00289BD151
:10D1E00021463E31284601F0DBFEFEBD121800004C
:10D1F000222A000030B51446827C85B08A4225D9A7
:10D200000A2251430A18FF304130C18E104D1432AA
:10D21000A94219D069460C80002501950295039515
:10D22000049512888A8001228A710D8103910493EA
:10D23000C08E01A9A6DF002804D169460988A14251
:10D2400000D00C2005B030BD0820FBE70720F9E72F
:10D25000FFFF000030B504460A88FF30413087B038
:10D26000102A22D0112A39D0502A3BD0512A1AD163
:10D270000D46881D8979012915D141886A462046C5
:10D2800005F0C0FC00280ED02168204600290AD0F5
:10D29000072269460A710A880A814A884A810595E7
:10D2A000026801A9904707B030BD8988C1866189AD
:10D2B0000029F8D0012269460A72002300930A80EF
:10D2C0004B8002A901916189C08E6A46A4DF0028C3
:10D2D000E9D061680029E6D08847E4E70021C94326
:10D2E000C186E0E7204603F02DFDDCE77CB5002594
:10D2F0000095069C6D462A800A22514309186B80CE
:10D3000040310194FF304130498FC08E6A46A5DF1D
:10D310007CBD70B504460D460846FDF735FF2080FC
:10D32000656070BD4178027808021043C007C00FE5
:10D3300070470A78027049784170022070470000F7
:10D3400000B5174887B040680590164B482216492B
:10D3500005A806F02DFB002801D0FEF7D5FE6A4691
:10D360000121002006F0F8FA002801D0FEF7CCFEDB
:10D37000684606F081FA002801D0FEF7C5FE0B488A
:10D3800006F070FA002801D0FEF7BEFE084806F04D
:10D3900041FB002801D0FEF7B7FE07B000BD00003A
:10D3A00088420200953902004823002035D0010050
:10D3B000293A0200FFB50024601C91B000070F4617
:10D3C000000F694610300294087218784872887A03
:10D3D000F9263040801C88721D461C2103A8FDF7E9
:10D3E000C8FE6946087B0221084369460873A9788C
:10D3F0000A07F721002A02D00822104300E0084063
:10D40000102210436A46107302A8049408900694F0
:10D4100007940994012090719780009468781070A7
:10D42000A878507090783040801C0840EF21084068
:10D4300040084000907014210BA8FDF79AFE01A847
:10D440000B9068466A460C909486D4861398108791
:10D4500011980F9400890BAA03A91A9BA2DF15B09B
:10D46000F0BD0000F0B58FB00D4606461C216846A1
:10D47000FDF77FFE684601780E2001436846017083
:10D4800000240194039404940594012708A80694A9
:10D49000877016496846018446200794415D6846B6
:10D4A0000177433529794177807FF9210840F721B9
:10D4B000801C0840EF2108404108490068468177F8
:10D4C000142109A8FDF755FE08A8099007A80A909D
:10D4D00068468485C485078633460D94FF333089BA
:10D4E000573309AA6946A2DF0FB0F0BD322A000007
:10D4F0000149085C70470000944202000549095C3C
:10D5000005480069C840C007C00F00D001200121B4
:10D5100048407047944202000005005005490B5CEA
:10D5200005494A6801209840034693438B601040A8
:10D53000C8607047904202000005005010B50349D2
:10D54000085C012102F0CCFF10BD000090420200F7
:10D5500010B50349085C002102F0C2FF10BD0000B5
:10D56000904202000549095C05484068C840C00770
:10D57000C00F00D0012001214840704790420200B6
:10D58000000500507CB50024074E2546305D012281
:10D59000009500231146019502F058FF641C042CED
:10D5A000F4D300F003F87CBD9042020010B50024D3
:10D5B0002046FFF7C3FF641C042CF9D310BD10B53F
:10D5C00000242046FFF7C4FF641C042CF9D310BDCF
:10D5D0000246002010B5C043054B00215C5C94421C
:10D5E00001D1084610BD491C0429F7D310BD000025
:10D5F0009442020070B50E4E00250C4630600029A2
:10D600000DD0012000F0AEF8002801D0022005E086
:10D61000002000F0A7F8002800D00B2020707068D0
:10D62000002802D1FEF73EFC0546284670BD0000EA
:10D630002421002010B51C4C0188606810290DD0F1
:10D6400011290AD1401E606007D1FEF72BFC00288B
:10D6500003D02168002900D0884710BD00281ED1C2
:10D6600000210122084600F0AFF8002801D0072869
:10D6700011D107220221012000F0A6F8002801D0D4
:10D68000072808D104220221002000F09DF800287C
:10D6900005D0072803D02168002900D0884760689A
:10D6A000401C606010BD00002421002010B5002047
:10D6B00000F0C8F9002801D0062807D1012000F0A9
:10D6C000C1F9002801D0062800D1002010BD0000BB
:10D6D000F3B581B00D460198FFF77AFF04460428A0
:10D6E00013D21D481D4F1E4E002D27D0012D0DD0E9
:10D6F000022D0AD160002018C0194578002D04D0F1
:10D70000F168002901D028468847FEBD61006118F4
:10D710007D5CCF19797800290BD071680A225143BA
:10D720000F4A8068921CFEF7E5FD002801D10198A0
:10D73000B0700B48B97810300155DFE78068FEF70C
:10D740001DFE0748610061181030C919005D8D7811
:10D75000A842D3D0FEBD00009842020070260020EF
:10D760001021002010B5FFF7C9FE10BD024610B50C
:10D770001248042A808812D01149072A17D00A2A91
:10D780000CD00E2A0AD1884208D00E4C01202070FD
:10D790000221E388A288615E04F0B2FF10BD13216C
:10D7A00076DF08E00028F9D0FEF7AEFC10BD884215
:10D7B000FCD1FFF79DF80828F4D110BDE81F002028
:10D7C000FFFF00000621002070B50023042811D2BD
:10D7D000440004190D4D012A02D101290DD0002267
:10D7E00046008019094E801900290CD0012906D065
:10D7F000022906D00723184670BD0E30C2B22A5542
:10D80000F9E74270F7E78270F5E700007026002024
:10D8100010B5054A0146127A0020D20702D0084608
:10D8200000F050F810BD000010210020F8B50646A9
:10D830001F4800248660C26041600F46B00720D5B3
:10D840000025012211462846FFF7BEFF6D1C044645
:10D85000042D02D2002CF4D013E0002C11D17A0850
:10D8600004211448FEF7F8FB04000AD1FEF7E2FB9E
:10D87000040006D10F48104A0021001FFEF7D2FC19
:10D880000446F00701D0FFF77DFE002C0ED10948B9
:10D890000A4A00210C38FEF7C5FC040006D10548F1
:10D8A000074A01210838FEF7BDFC04462046F8BDB2
:10D8B00010210020A44202001DDB01004DF80100F0
:10D8C0002BC00100F8B55D4C0546607800260028A5
:10D8D00003D000206070FFF769FE0120584F2B0035
:10D8E000FDF762FF18970D0D2E3D4A5F64686F6863
:10D8F0006FA97777777777979A9DA0A9A995002048
:10D90000FFF730FE00280AD00020FFF717FE022D97
:10D9100002D1E120C0000BE07D20400108E00020A2
:10D92000FFF716FE022D01D1C82001E0FF20913043
:10D9300025706421FDF7EAFB6168414300222BE07A
:10D940000020FFF70FFE002805D00020FFF7F6FDAE
:10D9500019204001ECE70020FFF7FAFDE4E7002082
:10D96000FFF700FE002803D00020FFF7E7FDD3E714
:10D970000020FFF7EDFDD9E70020FFF7F3FD0028B9
:10D9800003D00020FFF7DAFD02E00020FFF7E0FD02
:10D9900025706068410000223868FEF7ABFC06463F
:10D9A00035E00020FFF7BAFD257007E000203FE0DA
:10D9B00025702CE060700120FFF7B0FD0022616847
:10D9C000EAE760700120FFF7A9FD60688100411857
:10D9D000E1E77868FEF7D2FC06461120401B01D033
:10D9E000002E03D00220FFF7A9FD10E001280BD97B
:10D9F000C82148436421FDF789FB61680022414347
:10DA00007868FEF777FC06460220FFF7A1FD304656
:10DA1000F8BDFFF7CBFDCBE7FFF7C8FDC6E7FFF783
:10DA2000C5FD04E0FFF7C2FD0020FFF791FD0120D6
:10DA3000FFF78EFDBCE7FFF7C2FDB9E7102100201C
:10DA40009842020010B5FFF753FD032102F026FDB6
:10DA5000002010BD002901DA00207047026851182B
:10DA600001600120704700007CB5194C0146A27F7F
:10DA70000020002A19D0227F0C2326465A43203E3C
:10DA80009519002913D001A800902B786A7869684D
:10DA9000A86805F0E9FA0F49884208D169466A7812
:10DAA00089888A4203D329707CBD05207CBD227FF2
:10DAB0000C235A43002192195160227F521CD3B289
:10DAC0002377A27F521EA277052BEFD121777CBD51
:10DAD0001026002004300000F0B50F4C0646A57F4C
:10DAE0000020062D15D0657F0C277D432746203F5B
:10DAF000ED19AE6069602B706A70A17F491CA17737
:10DB0000617F491CC9B26177052901D10021617784
:10DB1000F0BD0420F0BD00001026002010B50078F4
:10DB20000221FFF7D5FD10BD0022D2438300044936
:10DB30000428CA5002D3081820300277704700002A
:10DB4000F82C0020F0B50025ED43002A02D0002378
:10DB5000042601E0042308260B4C04E09F00E7594B
:10DB60007F1C04D05B1CB342F8D32846F0BD2618B6
:10DB70005DB2203635709E00A151002AF5D1E11822
:10DB800020310877F1E70000F82C0020024909183D
:10DB90002020085670470000F82C0020FFB58FB0F9
:10DBA0001E4615460F0002D10020FEF7ADFA002DEB
:10DBB00002D10020FEF7A8FA1C216846FDF7D9FA29
:10DBC00068460178022001436846017000240194F0
:10DBD000039404940594012108A806948170684672
:10DBE0000F99018407943178017771784177807FAC
:10DBF000F9210840F721801C0840EF210840410826
:10DC0000490068468177142109A8FDF7B2FA08A8EF
:10DC1000099007A80A9068468585C485058604484A
:10DC20000D9709AA69460088189BA2DF13B0F0BDC2
:10DC3000D2210020002807D00449814204D8044999
:10DC4000814201D90120704700207047A0220020A6
:10DC5000B0220020044A0168914201D0083101E05D
:10DC60000149383901607047582E002070B50D4DBC
:10DC700004460A462846AC4208D1FF240134214616
:10DC8000104604F0A9F9A0420AD070BDFF2CFCD8C0
:10DC90002146104604F092F9002801D0204670BDBC
:10DCA000284670BDFFFF000070B5084C050009D084
:10DCB00010342168002907D0086820604968284688
:10DCC0008847F6E70834F4E770BD0000E42C002034
:10DCD000F8B52348416800293ED00E6821494C68B8
:10DCE00087688078E11B0D022D0AED1C002814D1F5
:10DCF00001201D4A000450601B4A403A50601B49F5
:10DD0000400008601A4908601A49012008602F2065
:10DD100002F030FA124901208870B54200D235462F
:10DD2000E81900020F4B000A403318600D4A516891
:10DD3000001B091B0902090A0002000AC91C8142D2
:10DD400009D9506818602F2002F014FA0120074901
:10DD5000400480390860F8BD04F098FFF8BD000069
:10DD600040220020001501404013014080E200E005
:10DD700000E100E000100140F8B5064610881446A6
:10DD80008446801D0D46984201D90C20F8BD32888A
:10DD90000720062AFAD31927FF01184BBA4201D9E6
:10DDA0009A42F3D171880629F0D3B94201D9994238
:10DDB000ECD19A4203D0994201D08A42E6D805219B
:10DDC0006046295420881221401C80B220802954AA
:10DDD0002088401C80B220804119308805F0EBFF7C
:10DDE0002188401880B220804119708805F0E3FF37
:10DDF0002188401820800020F8BD0000FFFF0000AF
:10DE000010B5FEF781F910BDF8B5164801F0B2FC67
:10DE1000144D00260C3D144C002807D061690029E0
:10DE20001CD001206A461070684616E02878002849
:10DE300005D06169002911D0684606700DE0687848
:10DE400000280DD0A168094800220068FEF752FAA8
:10DE5000002803D0A169002900D088472E70F8BDA2
:10DE60006168F0E76821002068280020C4420200B1
:10DE70007FB50C46002802D0012004B070BD207987
:10DE80000026002806D01B4D01281CD0022828D0CF
:10DE90000F20F2E702960396E0680190694601A818
:10DEA00004F0A8FC00280AD002988188E18000884C
:10DEB000208169460988029804F016FD00E00A20D6
:10DEC00002212171D9E70C4B6A460021A01D04F004
:10DED0004FFC002807D0084908398E60CE600A2818
:10DEE000CBD12846C9E704488188019804F0FCFC9E
:10DEF000F5E700001D1D000074220020F8B5002683
:10DF00000124154D23E06968F00047183878214650
:10DF10002A698140114218D08A432A6102F056FAD8
:10DF20003A782146EB689140194003469340994264
:10DF30000BD17978012901D0012100E000217B6813
:10DF40004140002B01D010469847761CF6B2287845
:10DF50008642D8D3F8BD00001C22002000B593B043
:10DF600002216846017011494180114981800121D7
:10DF7000C180402102A8FDF7FCF80EA102A8FFF71E
:10DF8000C8F9684610900120014610A8203101719F
:10DF90000020014610A8417102A8FEF7ABFF00283F
:10DFA00001D0FEF7B1F813B000BD00001519000054
:10DFB000EEEE00004E6F7264696353656D69636FC6
:10DFC0006E647563746F720010B50E4900230A7891
:10DFD0004C78A24212D0521CD2B20A70022A00D14E
:10DFE0000B700A78074B920018339A5802608868C1
:10DFF00010180002000A8860012010BD0360002094
:10E0000010BD0000402200203EB5094D38CD0093E0
:10E01000029501946B46588099809A7105490022B7
:10E020000978FEF723FF684600F08EF83EBD000039
:10E0300038430200B821002010B5047800222300E4
:10E04000FDF7B2FB070605070D1D262C06000A701A
:10E0500010BD01220A7002898A81828814E002229E
:10E060000A7002898A818288CA81C2688A60007CBB
:10E07000062802D00020087410BD0120FBE703220F
:10E080000A70C2888A810289CA81C068886010BD0E
:10E0900004230B70C0888881CA8110BD05200870D8
:10E0A00010BD000070B5064D06460024A00029589A
:10E0B000002901D030468847641C082CF6D370BD77
:10E0C000882D00200EB5002910D011290ED0002275
:10E0D000009202926A46508001910D2907D086294C
:10E0E00007D009201070104600F03CF80EBD0B2040
:10E0F000F8E70A20F6E70000014909680847000030
:10E100007821002070B5054D06460024A00029584E
:10E1100030468847641C022CF8D370BDE0420200F0
:10E12000F8B507460024064E064D04E0A00031581D
:10E1300038468847641CE8788442F7DBF8BD000065
:10E14000982C0020A821002070B5054D064600241B
:10E15000A000295830468847641C022CF8D370BDB3
:10E1600000430200014909680847000044430200D7
:10E170007FB50446406800280BD00020039020782B
:10E180000026414D0300FDF70FFB066D0606304EDD
:10E190007B6D0120F2E7A08900F00AFA002804D183
:10E1A000E08904F0C3FB00285CD0A08900F0FBF9F3
:10E1B000014668464180E08904F0B2FB01466846AA
:10E1C000017120780128606807D0002809D0042058
:10E1D000694608706068039020E00028F8D00320AA
:10E1E000F6E70120F4E708463AE0A08900F0E0F9FC
:10E1F000002804D1E08904F099FB002832D0A089DE
:10E2000000F0D1F969464880E08904F089FB69464D
:10E2100008716068002804D005200870A06802908A
:10E22000E1E70220F9E7A08900F0C2F9002819D03F
:10E23000E089002816D1A08900F0B5F96946488028
:10E24000E08904F06DFBFF206946087160680028D2
:10E250000FD0072008706E70AE7003F00FFB684699
:10E2600003F0C8F96878002802D06E7003F006FB4E
:10E270007FBD062168460170408803F08DFBEAE708
:10E28000082069460870AEE79421002000B51049C7
:10E2900087B00978890702D4022007B000BD0D4974
:10E2A000884201D10420F8E7052269460A7001225C
:10E2B0000A71C88000221146684602F0C9FD002894
:10E2C00003D004F001FA0020E7E70820E5E70000AA
:10E2D0006C220020FFFF000000B50F4887B00078D7
:10E2E000800702D4022007B000BD062069460870EE
:10E2F00000221146684602F0ABFD002809D007480D
:10E300000178002901D00121017304F0DDF900201A
:10E31000E9E70820E7E700006C220020882E0020B3
:10E3200010B58CB014216846FCF723FF1D48007817
:10E33000810703D56846FFF7B5FE30E0C0072ED150
:10E34000012000F05BF900F0D3F901246846047560
:10E3500002F040FE0300FDF727FA0C071107111B1E
:10E36000190A191B1317131B0B200CB010BD022028
:10E3700000F044F9012000F027F9DBE7002000E07D
:10E3800003206946087603E00220FAE7684604762F
:10E390000022114605A802F05BFD04F095F900206B
:10E3A000E3E700006C22002038B5040014D0694671
:10E3B00004F020FA002813D06846008801010948BB
:10E3C00009188889002809D0A27A002A06D0401EA0
:10E3D00088810020A07238BD052038BD062038BDD8
:10E3E0000A2038BD682E00201FB501A9684604F038
:10E3F000BFF904B010BD07B513460A4669460020B0
:10E4000004F0B6F90EBD07B513460A46002168466A
:10E4100004F0AEF90EBD002805D0002903D0006835
:10E4200008600020704705207047000038B50D4691
:10E43000040017D0002D15D0694604F0DBF9002840
:10E4400012D0684600886168020108481218908955
:10E45000401C9081296060680C3068600120A072C7
:10E46000002038BD052038BD0A2038BD682E0020A8
:10E4700010B5002804D00323002205F0CFFD10BD05
:10E48000052010BD10B50223002205F0C7FD10BD08
:10E4900010B5002A03D0022305F0C0FD10BD0520F1
:10E4A00010BD000010B5064A5178082906D08B002F
:10E4B000044C491CE0505170002010BD0C2010BDD0
:10E4C0006C220020882D002038B504460A480D46ED
:10E4D0000078800701D4022038BD002C0AD069469C
:10E4E000284605F0ABFE0028F6D169460988218050
:10E4F000658038BD052038BD6C22002010B504466B
:10E500000E480078800701D4022010BD002C10D0E6
:10E51000218802290FD80A4A080180184289608898
:10E52000121A032A07D405F07FFE002020806080A5
:10E5300010BD052010BD042010BD00006C2200207D
:10E54000682E00207FB50646087E0D46002827D09D
:10E55000E869002824D000241FE0E869E10043189E
:10E56000002069460390087B0A2108436946087326
:10E57000D9790A2060438019C907C90FE0301A1DF4
:10E580000191029000921A8803A930469B1C04F066
:10E5900011FA002805D1641CE4B2287EA042DCD820
:10E5A000002004B070BD03218903401A80B2704777
:10E5B00003218903401A0349884201D8012070478A
:10E5C00000207047FE3F000002490A7882430A702B
:10E5D000704700006C22002010B50446007818280F
:10E5E00002D1FEF70DFC207010BD10B50446007876
:10E5F000182802D1FEF704FC207010BD02490A78E9
:10E6000002430A70704700006C22002070B5064675
:10E6100000200546862906D0112902D0002903D002
:10E6200070BD012500E001200E4C002A02460FD0EB
:10E6300061793046FEF71AFC2A4621793046FEF70A
:10E6400015FC002261783046FEF710FC002204E041
:10E6500061783046FEF70AFC2A4621783046FEF7FC
:10E6600005FC70BDBC210020F8B506461C481F46BD
:10E67000007815460C46C0070AD03046FFF7DAFA94
:10E68000002807D0002C07D0A00507D00620F8BD31
:10E690000120F8BD0220F8BD0320F8BD3068A0427B
:10E6A00004D8A80271680019884201D90520F8BD74
:10E6B000002D10D0684603F059FF00280DD00098B7
:10E6C0000221C0C00170A101090C8180058104F004
:10E6D00009F80020F8BD0420F8BD0720F8BD0000AF
:10E6E0008422002010B5084603F05CFF10BD000036
:10E6F000F0B52648264C001B0309264819464069F8
:10E70000421C03D10120000740698002224A12788E
:10E710009646D2070CD00020F0BD1D4C15012C19D7
:10E720002568002D03D06468002C00D0491E521CBF
:10E730009A42F2D3002420E0E2B2002594462A4611
:10E740000FE0134E1701BE193768002F02D077680B
:10E75000002F05D1767BAE4202D93546D6B2B446FB
:10E76000521C9A42EDD362461501094AAA1850601C
:10E77000157BAD02401B641C10608C42DCD3064844
:10E780007146012211430170C5E70000B02200204C
:10E79000A02200200010001084220020002804D0B5
:10E7A0000349496E01600020704703207047000054
:10E7B000982E0020F8B507461E481E4600781546DC
:10E7C0000C46C0070ED03846FFF734FA00280BD0AD
:10E7D000002D0BD0002C09D028462043800707D0FD
:10E7E0000620F8BD0120F8BD0220F8BD0320F8BDC9
:10E7F0003868A04204D8B10078680919884201D26B
:10E800000520F8BD002E11D0684603F0AFFE0028A9
:10E810000ED0009806990760416001210172C56021
:10E820000461868203F05EFF0020F8BD0420F8BD7D
:10E830000720F8BD8422002070B5174B0446186EDF
:10E84000182148431549C0180A78950715D5022C98
:10E8500002D0032C1CD102E002F012FA18E04A7830
:10E86000521CD2B24A70032A12D900224A700821DF
:10E8700004F0D6FB03F064FE0AE0500708D5FB2045
:10E8800002400A70586E002802D0022002430A702B
:10E8900003F0E4FE70BD0000982E002084220020CA
:10E8A0000EB51120694608720F2210A102A87CDF64
:10E8B000002801D0FDF728FC0F20800178DF002818
:10E8C00001D0FDF721FC0020009001900620694650
:10E8D000088018224A8088802B20C88068467ADF0A
:10E8E000002801D0FDF710FC0EBD00004E6F7264D1
:10E8F00069635F4B6579626F6172640070B500286F
:10E9000001D0012070BD164C0025207B002801D0CD
:10E91000257301E000F09CF820780300FCF744FF29
:10E92000081E05080B0E1E111A1E00F01BF870BD04
:10E9300000F07EF870BD00F061F870BD00F038F8AE
:10E9400070BD60880649000120394018406802F017
:10E9500021FB70BD656002F02BFB70BD0F2070BD08
:10E96000882E002070B5104900208A1C0D460346F1
:10E97000203D0C18A67A002E08D0A3720401641959
:10E98000A689002E02D1A47B012C08D0401C80B2A5
:10E990000228EED30B704B8004484B6070BD108092
:10E9A00000F046F870BD0000882E00201D1D0000FC
:10E9B00010B50F4C60880101204620380818818965
:10E9C00000290BD0052020700A48022181800168AF
:10E9D000002301220848FFF747FE10BD41680023CD
:10E9E00001220548FFF740FE0421217010BD000000
:10E9F000882E00207C220020A022002038B50A4961
:10EA000008480B688988426889005918538803248C
:10EA100004700020DB1C00909BB20448FFF7CAFE84
:10EA200038BD0000882E00207C220020A02200207B
:10EA300010B506494888091D03F02CFF002802D0B4
:10EA4000FFF7DCFF10BDFFF7B3FF10BD882E0020DD
:10EA5000F0B51D481D4907780246012502268C881D
:10EA6000203A3B00FCF7A0FE080517171A212C2CB2
:10EA700016170189491C01810021418001730B0196
:10EA8000D35C002B08D000234418491C89B2A37220
:10EA90000229F4D30570F0BD0123F5E742685288DE
:10EAA000D21CA2188A800670F0BD45880B682D0123
:10EAB000AA1855680D60536014818E80062100E00D
:10EAC00007210170F0BD0000882E00207C2200206C
:10EAD000F0B504460088384D8DB050281DD052281E
:10EAE00002D0542826D103E0A08801F0F5F821E0F7
:10EAF000062069460870A08800F0F4FC694648804A
:10EB0000A2888A8000F054F9A0880022E978FEF7F4
:10EB1000ADF96846FFF7F0FA0CE0207B012809D137
:10EB2000A07A012806D120892449884202D1A088F0
:10EB300001F00EF9A878FEF77BF9002819D008A893
:10EB4000FEF7AAF8142208A903A8FCF7F9FA002492
:10EB500003AE0BE060008719B888A978FEF774F956
:10EB6000002802D0B88801F0B7F8641C0398A042CE
:10EB7000F0D86878FEF75CF9002819D008A8FEF7ED
:10EB80008BF8142208A903A8FCF7DAFA002403AED4
:10EB90000BE060008719B8886978FEF755F90028FE
:10EBA00002D0B88801F0D4F8641C0398A042F0D8D1
:10EBB00004F0DEFA0DB0F0BD702100200229000043
:10EBC0003EB504464088694648802078002814D025
:10EBD00001281DD002280FD1207900280CD0608890
:10EBE00000F0B2FB0E49884206D00E490122C978D6
:10EBF000FEF73CF904F0BCFA3EBD00200870084660
:10EC0000FFF77AFA608800F09FFB01F065F83EBDDF
:10EC1000012168460170A1888180FFF76DFA3EBD31
:10EC2000FFFF00007021002010B504460078012885
:10EC30000DD1608801F050F8608800F07FF900285D
:10EC400005D0034960880122C978FEF70FF910BD8D
:10EC50007021002010B5104C00202070FEF7D0F875
:10EC60006070FEF7CDF8A070FEF7CAF8E070FEF70E
:10EC7000C7F82071617818290BD0A178182908D01D
:10EC8000E178182905D0182803D001202070002031
:10EC900010BD032010BD000070210020F0B585B02C
:10ECA00000F09EF86846FDF7F7FF00246D460C4F14
:10ECB0000EE060004619B08800F014FCB84205D19F
:10ECC0000849B0880122C978FEF7D0F8641CA4B2C4
:10ECD0000098A042EDD804F04BFA05B0F0BD00005A
:10ECE000FFFF00007021002010B50178072902D134
:10ECF000408801F02DF810BD10B504460A4841784F
:10ED00002046FEF7A1F800280CD0084800210C226C
:10ED10004A4312185288A24201D1C8B210BD491C00
:10ED20000829F4D3FF2010BD88210020B828002036
:10ED300070B5094D094E00240C20604340194088ED
:10ED40007178FEF781F8002804D0641C082CF3D3F6
:10ED5000FF2070BDE0B270BDB828002088210020DF
:10ED6000F8B50746104E0125BD403068FDF706FB9B
:10ED700000280DD10D4C2069284207D1384601F0FA
:10ED800025FB0028E06804D0284303E0A843206165
:10ED9000F8BDA843E0602069002228432061A168F3
:10EDA0003068FDF7A7FAF8BD4C4302001C22002092
:10EDB0001CB5054A9168D26801920091002269460B
:10EDC00002F0E0FA1CBD0000CC4202000348002122
:10EDD000C943818001210170002070477C210020FF
:10EDE00010B5044802F0FAF90349888004F0ECF900
:10EDF00010BD0000FFFF00007C210020F1B582B0B3
:10EE0000029800F06FFB00241649032501272646CF
:10EE1000884209D06A46082102F08AFA002803D104
:10EE2000019886880568841D2B4632462146029843
:10EE3000A9DF042804D0082804D00B2807D002E05A
:10EE4000112000E00020002F00D10B20FEBD002784
:10EE5000A80701D50125E7E73443F6D0002426466C
:10EE60000325E1E7FFFF0000F1B582B0029800F052
:10EE700039FB07461B48874201D11B48FEBD0125CF
:10EE80002A466D1C0026ADB26B460821384602F0BA
:10EE90007FFA040002D0072C21D021E0019903233E
:10EEA0000B600A1D891D0298AADF040004D00C2CF7
:10EEB00008D0052C08D008E00821384602F002FBF3
:10EEC00004460DE0012600E000240821384602F047
:10EED000E3FA002800D00324002ED1D100E00C2456
:10EEE0002046FEBDFFFF0000023000001FB50446B3
:10EEF0000078012815D12079012812D1608802AA52
:10EF0000012102F015FA00280BD102216846017098
:10EF10006188418003980178684601710549096854
:10EF200088470448044908388088884201D004F0A2
:10EF30004BF91FBD84210020FFFF00001CB500F02D
:10EF4000D1FA6A46012102F0F3F9002801D000202D
:10EF50001CBD019800781CBDF8B5074E074C084D44
:10EF60000746324661883846A7DFA84203D1608849
:10EF7000401C6080F5E7F8BDFFFF00007C21002009
:10EF8000033000008188054A914204D0008800289F
:10EF900001D001207047002070470000FFFF0000F3
:10EFA000F0B58FB00F4605461C216846FCF7E1F826
:10EFB00068460178042001436846017000240194EA
:10EFC000039404940594012608A8069486701649B3
:10EFD0006846018407943978017779784177807F92
:10EFE000F9210840F721801C0840EF210840410822
:10EFF00049006846817708A8047114210AA8FCF723
:10F00000B8F808A80A9007A80B90684606864486B8
:10F01000868609A82B460E90FF3328896F330AAAEB
:10F020006946A2DF0FB0F0BD4C2A000070B590B069
:10F030000C4606461C216846FCF79BF86A46107889
:10F04000022108431070002501950395049505954C
:10F05000012008AA069590711B486A4690843420C6
:10F060000795005D10773520005D5077907FF9217E
:10F070000840F721801C0840EF210840400840006C
:10F080009077208E08AA1070000A50703034A07853
:10F090009070E078D070042414210AA8FCF769F875
:10F0A00009A80A9007A80B906A461486558694868C
:10F0B00008A833460E90FF33308967330AAA6946A1
:10F0C000A2DF10B070BD00004A2A000070B59CB0ED
:10F0D0000024189419941A941B9412941394149461
:10F0E00015941694082110A817940184012618A8D5
:10F0F00086703146C6702031017131462031417130
:10F10000314620318171052110A8018518A884722B
:10F110000221C1720120024618A820324273012048
:10F12000024618A8203282730B2210A80281817235
:10F130000325C5720120024610A8203282730120E7
:10F14000024610A82032427301828174C5740120E6
:10F15000024610A8203282750120024610A82032F3
:10F16000427501838176C5760120014610A82031C1
:10F1700081770120014610A8203141774821684657
:10F18000FBF7F7FF27480090274801906846047274
:10F190004472867218A80390684606741AA80590EF
:10F1A0006846057612A80790F921684681841F48B1
:10F1B000FF21089002316846018608A88474C5744E
:10F1C00084750120014608A820310E9401730020A7
:10F1D000014608A841730120014608A820310175A5
:10F1E0000020014608A841750120014608A82031E9
:10F1F00001770120014608A820314177002001460F
:10F2000008A881770120014608A82031C177694606
:10F210000748FDF757FF002801D0FCF775FF1CB029
:10F2200070BD0000550C0200333302000C2000209A
:10F23000402400203EB5044600780D46022815D132
:10F240000322611C6846FBF77BFF0322211D02A8F5
:10F25000FBF776FF01AA02A92846FCF7BFFE0322AE
:10F2600001A96846FBF797FF002801D000203EBDAA
:10F2700001203EBD10B50C46FFF73EFDFF280AD029
:10F280000C2148430549072241182046091DFBF778
:10F2900057FF002010BD052010BD0000B828002039
:10F2A00070B5018890B0102949D1011D2C2202A807
:10F2B000FBF746FF6846234E007B344602AD032829
:10F2C0002AD002F007FA6846007B00280ED00128F9
:10F2D0000CD0022820D118E00E99281D1131FCF71E
:10F2E000D2FC002802D06846048815E00DAA6946C1
:10F2F000072002F0C5F90028EED10DE00E99281D77
:10F30000491CFFF797FF0028EDD10DAA6946072099
:10F3100002F0B6F90028F1D168460089291D00F0F5
:10F32000D1FEB4420BD068460089214600F088F82F
:10F3300068460189418001210170FEF7E3FE10B0AB
:10F3400070BD0000FFFF0000084A00210C234B4362
:10F35000D35A834204D10C20414388184088704717
:10F36000491C0829F2D3024870470000B828002041
:10F37000FFFF00000620704710B50E4C182060708B
:10F380000D4A0E4900200C2343435B18401C5A8051
:10F390000828F8D3FDF734FD6070182804D005481C
:10F3A000C01C71DF002801D0032010BD0120207097
:10F3B000002010BD88210020FFFF0000B828002099
:10F3C00070B504460D46401C00F006FA002810D027
:10F3D0001022691C601CFBF7DEFE00280AD0002604
:10F3E0002946204611311130FCF74DFC01463046CC
:10F3F000084370BD0126F3E70188002903D14218B4
:10F400009278002A01D001207047491C0829F6D3C0
:10F410000020704710B50C460346FFF7EDFF0028AB
:10F420000BD018882188884206D10822A11C981C7C
:10F43000FBF7B1FE002801D0002010BD012010BD57
:10F4400010B502F005FB10BD10B50446007888B079
:10F45000002826D12079072823D1608801AA072116
:10F4600001F066FF00281CD102F034F91BE0694668
:10F4700060880988884216D004990298FFF7A0FF97
:10F48000002810D06088FFF75FFF01466846C18200
:10F4900000210175618801830188418305A8FEF779
:10F4A00031FE08B010BD03AA6946072002F0E8F853
:10F4B0000028DCD1F5E7000070B50446FFF744FFF3
:10F4C0000546204601F039FF054904468D4204D027
:10F4D000002C02D1284602F0BBFA204670BD000085
:10F4E000FFFF000010B5FFF707FCFF2804D00C2138
:10F4F00048430249085A10BD014810BDB8280020F1
:10F50000FFFF00003EB5044602F0E4F810E0019968
:10F5100020464631FFF77EFF002806D1019920469C
:10F520002A31FFF777FF002802D0684600893EBDE8
:10F530006A4602A9072002F0A3F80028E7D1014893
:10F540003EBD0000FFFF00007CB514460A000A49DA
:10F55000897802D015688D4204D3002B04D01D6831
:10F560008D4201D204207CBD0193134602460094D3
:10F57000024802F0BDFA7CBD882100201829002035
:10F5800070B50C46054610210948FBF7F2FD094805
:10F59000002D09D0002C07D0847062002946044851
:10F5A000FBF7CEFD002070BD00218170FAE700005E
:10F5B0001829002088210020F8B50F46002804D023
:10F5C0000120FFF701F80120F8BD397900290AD0A0
:10F5D0000026254D01290BD0244C022920681FD07C
:10F5E00003293BD125E001F0E3FC0121397133E02F
:10F5F00000200101695C02290BD0401C80B2022866
:10F60000F7D30220FEF7FAFF0120FEF7DDFF1848CE
:10F61000F8BD04016019406801F0BCFC2E551BE0E8
:10F620000146002301221348FFF71EF80221A180A2
:10F6300011E001F0AFFC0C492368203149880A0130
:10F64000094951184D6825604B60A3880B81022140
:10F65000A18005498E543E710028D9D00120FEF7C3
:10F66000B3FF0E20F8BD0000682E00207C22002091
:10F670001D1D0000A02200207FB50646887A0D4699
:10F68000002833D0E868002830D000242BE0E86858
:10F69000E1004318002069460390087B02210843DB
:10F6A000694608739979090702D00821084301E0E7
:10F6B000F721084010210843694608730A20604377
:10F6C0008119D8791431C007C00F1A1D0291019019
:10F6D00000921A8803A930469B1C03F06BF900289E
:10F6E00005D1641CE4B2A87AA042D0D8002004B0AE
:10F6F00070BD0000F8B51E4C2078002836D0E068B8
:10F70000002600280CD00025607800282ED16846FD
:10F7100052DF052806D0002806D0FCF7F5FC0BE0E8
:10F720000125F1E7012607E0009800F079FD216945
:10F73000002901D000988847002D13D16078002857
:10F7400014D1608869460880A06861DF052804D06C
:10F75000002804D0FCF7D8FC04E0012502E0E168B1
:10F76000A0688847002ECFD0002DE5D0F8BD00005E
:10F7700088220020418805480288914204D34088AD
:10F78000814201D80120704700207047602100208D
:10F790001048018CC9B2012917D1818C090714D1F5
:10F7A000018D09060A0F03D1828D1206120F0ED0A9
:10F7B000090F012903D1828D1206120F07D00329E8
:10F7C00003D1808D0006000F01D00020704701207A
:10F7D00070470000C00F00F00021425C002A01D0F9
:10F7E00001207047491C1029F7D30020704780077B
:10F7F00001D0002070470120704700007CB504460E
:10F8000001A800900D46002322460D4803F02CFC71
:10F810000C49884209D168468388A34204D822460D
:10F8200029460748FEF758F97CBD0028FCD0082877
:10F83000FAD005498842F7D0FCF766FC7CBD000091
:10F8400040240020043000000134000010B50448BA
:10F85000017AC90702D00078FEF734F810BD000025
:10F8600010210020FFB5244D81B0287A1F460E4696
:10F87000084304D0039A002E04D0002104E00520A0
:10F8800005B0F0BD1C491031019803F0EDFE0446AF
:10F89000014600220198FEF7B9FE002F03D0214651
:10F8A0000198FEF70FFC112C0FD006DC002C0AD0BB
:10F8B000082C08D00D2C05D105E0862C11D00F485E
:10F8C000C44200D003242046DAE73246E9780198A2
:10F8D000FDF7CCFAA978039A0198FDF7C7FA00243E
:10F8E000F1E73246E9780198FDF7C0FAA978039A62
:10F8F0000198FDF7BBFAE6E7BC210020FECFFFFF31
:10F90000FEB517460C00064604D02078C00704D088
:10F91000012003E000217EDFFEBD02206946087160
:10F920003046FFF7DFFD17490546884208D001A899
:10F9300000902B463A462146304600F025F806E076
:10F9400020782146C007304603D000F081F80446F5
:10F950000BE07EDF044600200090002C08D000223F
:10F9600001232946304603F027FB002C02D006E095
:10F970000122F5E768460179304603F043FB204653
:10F98000FEBD0000FFFF0000FFB585B000252E463C
:10F9900001AA07210E9F089801F0CAFC040008D1B3
:10F9A000029D4420405D1835C607F60F01D0029D28
:10F9B00034350798204312D1002D10D0002E05D1E8
:10F9C00028461230FFF718FD002808D029462A469D
:10F9D0001231059885DF04460020387023E0002CA2
:10F9E00001D0052C1FD106980078C0070DD003ABBD
:10F9F00001220721089801F0CBFC04000AD107215D
:10FA0000089801F0C3FD040004D1069905987EDF33
:10FA1000040008D00721089801F03EFD002802D01C
:10FA2000052800D00324002000903878002801D059
:10FA3000012300E00023002C07D00022089905983C
:10FA400003F0BAFA204609B0F0BD0122F6E7000043
:10FA5000FEB50F46064601F05FFC05461848854294
:10FA600020D001AB01220721284601F091FC0400BF
:10FA70000AD10721284601F089FD040004D1394646
:10FA800030467EDF040008D00721284601F004FD3F
:10FA9000002802D0052800D0032401200090002C6B
:10FAA0000BD002E00324002000900022012329460D
:10FAB000304603F081FA2046FEBD0122F6E7000041
:10FAC000FFFF0000F7B5114D0F4616462978009844
:10FAD000FDF7BAF9002812D00098FFF703FD04469D
:10FAE0000B4884420BD069780098FDF7ADF90028E7
:10FAF00006D033463A462146009801F0E3FAFEBDAF
:10FB0000324639460098FEF77FFAFEBDB821002044
:10FB1000FFFF0000F1B586B00698FDF789F90028CF
:10FB200021D06846FDF7B8F800246E4618E0600062
:10FB30008519A8880699FDF787F900280FD00B4F83
:10FB4000A888B978FDF780F90590A888F978FDF7BD
:10FB50007BF90146A8880123059AFFF783FE641C00
:10FB60000098A042E3D807B0F0BD0000BC210020FF
:10FB7000F0B5284C2146103948688B6822788646B3
:10FB80009C46CF78667836E0182353436168521C50
:10FB9000C918A378D2B2934200D100220B78022B6D
:10FBA00002D0032B27D123E003464D68194603E01A
:10FBB000A94204D00B46C96900291CD0F8E70029E6
:10FBC00019D08B4208D1C069002805D1124F0125F8
:10FBD000BD600025AC4601270D68C969D9610029BF
:10FBE00009D00B685B190B6005E00174C06900E087
:10FBF00000210028F9D19642C6D106496246103943
:10FC00008A604860CF70704501D00120F0BD0020AF
:10FC1000F0BD00005022002000100140F8B52C4E2D
:10FC2000044670680025009041E0002C02D0204678
:10FC3000E46920E0264818231030017842684B43DD
:10FC4000491CC9B2D21801708378994200D105705D
:10FC50001178506801292CD1017C002929D19168A3
:10FC60004160D16881601169C16051698161F17839
:10FC7000002900D045604368B268164F991A0902FE
:10FC8000090AB94202D28268891806E0D11A09022B
:10FC90008268090A8A4202D9511A016000E00560AF
:10FCA0004560012185600174C56103F037FF002CB8
:10FCB000BBD107481030017840788142BAD17168D1
:10FCC0000098814201D00120F8BD0020F8BD00005D
:10FCD00040220020FFFF7F00FEB5044619480026A1
:10FCE00084422DD02046FFF789F8050012D00B2D55
:10FCF00014D0112D10D01448C5421BD009216846DC
:10FD000001702046FFF7EEFB014668464180848083
:10FD100002950DE0022102E001260BE00321684676
:10FD200001702046FFF7DEFB014668464180848073
:10FD3000FEF7E2F90548324681782046FDF796F84D
:10FD4000FEBD0000FFFF0000FECFFFFF702100207E
:10FD5000FEB504460026FFF787F80546112818D09F
:10FD600004DC002D13D00C2D05D114E0862D25D0F8
:10FD70001348C5421BD00921684601702046FFF791
:10FD8000B1FB014668464180848002950DE0012167
:10FD900002E001260BE007216846017084802046BE
:10FDA000FFF7A0FB014668464180FEF7A5F905482C
:10FDB000324641782046FDF759F8FEBD0821EBE7B1
:10FDC000FECFFFFF70210020F8B5054600780C46F5
:10FDD000002620420FD10020694608706846FCF7D3
:10FDE000E1FA2878204202D1204328700126684693
:10FDF0000078FCF7F5FA3046F8BD000088B0002026
:10FE000000F0F4FC002801D0FCF77EF94F4B504A7B
:10FE100005210020FCF734FA002801D0FCF774F922
:10FE20004C4A01214C48FCF7FDF9002801D0FCF7B1
:10FE30006BF94A4A4A490320FDF7F8FC002801D033
:10FE4000FCF762F901A90020FDF7D4FB002801D0DE
:10FE5000FCF75AF968460079022874D000206946F8
:10FE60000870FDF76DFA3A4A0A21C0320820FCF703
:10FE7000C3F9002801D0FCF747F96846007801F083
:10FE8000FBFD68460078002803D036A1032000F06F
:10FE900089FCFEF705FDFCF723F8FEF75FF8FCF799
:10FEA00005FBFFF713F936485121016064214160D9
:10FEB0000121816001730146324803F029F91C21B8
:10FEC0006846FBF756F90520C00301900F20000497
:10FED000002402900094032168460173C4810474D5
:10FEE0002948069005946846FCF764FE002801D076
:10FEF000FCF70AF922482249403004774477847796
:10FF0000002020310C2242435218401C5460052826
:10FF1000F8D31EA1032000F045FC0F480121002268
:10FF200009040068FCF7E6F9002801D0FCF7ECF8BA
:10FF3000FCF710F8FCF742F948DF0028FAD0FCF78C
:10FF4000E3F8F7E7FFE7012089E7000069C2010055
:10FF5000D022002035C60100884202006DD7010082
:10FF6000CD0C00004150503A494E464F3A426F6E18
:10FF7000647320657261736564210D0A00000000DE
:10FF8000D02500200420002001DE01004150503A1D
:10FF9000494E464F3A484944204B6579626F617239
:10FFA00064205374617274210D0A000008B50023A7
:10FFB00000936B4618809970DA70009808BD70B590
:10FFC000144682880E4605462088111D4118921C51
:10FFD000994201D8FE2A01D90C2070BD521C32541E
:10FFE0002088FF21401C80B2208031542088401C92
:10FFF00080B220808119288803F0DDFE2188401816
:020000040002F8
:1000000080B22080AA88002A09D0A968002908D0D7
:100010008019FBF795F82088A988401820800020D7
:1000200070BD072070BDF8B50F460178144605462F
:10003000012902D16878002806D02088821C9A42C3
:100040002DD8012902D006E00720F8BD69784118B3
:10005000891C994223D8181A801E86B268460680E9
:100060002188B81C081869467DDF0028EDD1287862
:10007000022805D169460988B14201D809210AE060
:100080000821012805D16878B04202D86A4610805C
:1000900001E06846068068460088FE2801D90C20E9
:1000A000F8BD2288401CB8542088401C80B22080B3
:1000B000395420886946401C2080098840182080D7
:1000C0000020F8BDF8B5FF240F46054600291FD0D3
:1000D000104EB5421CD01048012241782846FCF74A
:1000E000C5FE2846FEF708FE0446FF2804D1FEF7A9
:1000F0001FFE0446FF280BD00C2148430749024647
:10010000401845808E5207223946001DFBF718F82B
:100110002046F8BDFFFF000088210020B8280020FD
:1001200070B50B4D0E46A84201D1002000E0401CE6
:1001300084B209E02146304601F068FF002801D072
:10014000204670BD641CA4B2FF2CF3D9284670BDB4
:10015000FFFF0000C20843075B0F0120895C984045
:10016000084070470121890740180068002800D026
:100170000120704700280FD00849094A096800BFCC
:1001800000BF00BF00BF00BF00BF00BF00BF914263
:1001900000D000BF0138F2D1704700009C2200203F
:1001A0000024F40070B50E4C00252078002801D002
:1001B000852513E00021A16061602161E1600948AB
:1001C00000680126304002D1032100F02FF803F02F
:1001D0001BFC002801D1044886612670284670BDAA
:1001E000E42C002000E100E00005004038B50020CC
:1001F000694608706846FCF7D5F8084C2078002856
:1002000001D1FFF7CFFFE068401CE0600120A07043
:1002100068460078FCF7E4F838BD0000E42C0020C4
:1002200010B5002801D1FDF73FFD10BD8207D30EA8
:10023000FF229A408907090E10B5994000280BDA71
:1002400003071B0F083B9C080C4BA400E318DC6958
:1002500094430C43DC6107E08408094BA400E418D4
:10026000236893430B432360C106C90E01208840D5
:10027000044908600449086010BD000000ED00E07A
:1002800000E400E080E200E000E100E0F3B581B0CE
:10029000054601F089FC1F4F0028284617D0FDF7BE
:1002A00075FCC0192030007F8009032802D0012886
:1002B0000BD005E018480069E840C007C00F04D023
:1002C0000321284600F0FBF8FEBD0221F9E701F00A
:1002D00077FC0028F8D02846FDF758FC044680003B
:1002E000C11D0E4AF9318018026989B201263243D4
:1002F0000261084600F014F902980028E4D028466C
:10030000FDF744FC800038580028DDD00448A640A2
:100310004660FEBDF82C002000050050006500403E
:1003200000630040FEB5044625480E460019202112
:1003300041560027C8171346401C01D008273CE04F
:10034000F27819462046FDF7FDFB0546401C33D0E8
:10035000B07800280BD005200007A100091807205D
:1003600000020918086802229043086007E0002193
:100370007378204600910A46019100F07BF8F078EE
:10038000002810D00F48AA001018317802690E4BCF
:100390001A400261E206D20C8907890B0A430169FF
:1003A0000A43026109E00648327840192030017F93
:1003B00092011143017700E004273846FEBD00009A
:1003C000F82C002000650040FFE0FCFF03490969AC
:1003D000C140C807C00F00D0012070470005005081
:1003E00070B5144D2879002801D0082070BD11493E
:1003F00000204039421E0B182033401CC0B21A7036
:100400002028F8D300242046FDF78EFB641CE4B2BC
:10041000082CF8D303210620FFF708FFFF207D30CA
:1004200000F07EF801200449C007486001202871CF
:10043000002070BD382D0020006300400248007984
:10044000002800D001207047382D002070B55200E0
:100450000A439900049D0A432902059E0A43310478
:1004600005240A43240780000721001909024018C7
:10047000026070BD70B552000A439900049D0A43A2
:100480002902059E0A43310405240A4324078000FB
:100490000721001909024018026070BD05221207E9
:1004A00080008218072000021018026803231B0432
:1004B0009A430260026809040A43026070470522F9
:1004C0001207800082180720000210180268032318
:1004D0001B049A430260026809040A4302607047E1
:1004E000012282400348002901D082607047C26027
:1004F000704700000005005038B5084B05241B6804
:10050000009324026B46411805E085005D592D19C2
:100510002D69401C20C28142F7D838BD48430200F3
:10052000024940180021016070470000006000404F
:10053000034940180068012800D0002070470000DF
:1005400000600040004870477105020070B5074D1B
:1005500004462878002802D06878844204D0FAF74C
:10056000D7FF012028706C70002070BD862200200B
:10057000F0B5C5B017460022084600924D994B9A37
:100580001E4651180391002801D00A2100E00021E5
:1005900004AD0191002E15D16A46294603F042FBB5
:1005A000002870D03846FAF7EFFDC22800D9C220E3
:1005B00004460098224628183946FAF7C1FD0098EB
:1005C00000190090009A0198111804A8841831317C
:1005D0004518002003E020212170401C641C019973
:1005E0008842F8D300270398864207D32020207042
:1005F0006070A0702870E41C6D1C2CE04B98864243
:1006000002D24A98805D02E0311A4C98405C224642
:100610008446012102908B006046D8400007000FFD
:10062000092801D9373000E0303001235B1AD0545B
:10063000491EF0D220209070D41CFAF77DFD01688D
:100640000298085C8006C00E01D0029800E02E20BF
:1006500028706D1C761C7F1C102FC4D30D202870B1
:100660000A206870202020700099019809184331F1
:1006700004A8009102F065FD002804D0002000903D
:10068000039886429ED3304645B0F0BDFFB5C7B053
:1006900008460025509F06AE1C46314605AA059522
:1006A00003F0C0FA002836D03846FF270137030090
:1006B000FBF77AF80705131B333F4B572500499882
:1006C000FAF762FD059905464018FF2817D87018FB
:1006D0002A464999FAF734FD11E005982368391A3A
:1006E0003018499AFBF74AF808E0606800900598CE
:1006F0002368391A3018499AFBF740F8054629460D
:1007000005A8FDF7A7F90599002839D0B94237D8CF
:1007100006A802F016FD4BB0F0BDA168606800901D
:10072000019105982368391A3018499AFBF726F881
:10073000E4E7201D07C86B4607C305982368391AEC
:100740003018499AFBF71AF8D8E7201D0FC86D46F4
:100750000FC505982368391A3018499AFBF70EF827
:10076000CCE7204608300FC801AD0FC56068009087
:1007700005982368391A3018499AFAF7FFFFBDE740
:100780000020C8E7004870478D06020038B5009386
:10079000034B0D465C69134600212A46A04738BD2D
:1007A000002F002010B500231A46FFF7EFFF10BD01
:1007B00008B5009201236A46FFF7E8FF08BD1CB5A3
:1007C0000193009202236A46FFF7E0FF1CBD3EB58D
:1007D0006D46069C1CC503236A46FFF7D7FF3EBD46
:1007E000014A916150617047002F002070B50120CF
:1007F000FFF7ACFE040008D1FFF7C4FF0546FFF782
:10080000A1FE01462846FFF7EBFF204670BD405889
:10081000002800D00120704703221202801840688F
:10082000084000D00120704700B5B1B00300FAF7CE
:10083000BBFF0928060E101A202237510E002FA1E7
:100840000320FFF7AFFF052008E0FBF75DFC31B0A8
:1008500000BD32A10320FFF7A5FF0220FCF7D8FF5F
:100860000028F2D1F3E734A10320FFF79BFF042017
:10087000F4E738A100E041A10320FFF793FF032034
:10088000ECE70020FCF7C4FF002801D0FBF73CFC9C
:10089000FCF70CFF002801D0FBF736FC3CDFDFE75C
:1008A00008200090019001AB02AA694622A801F03D
:1008B000C1FD002801D0FBF727FC3A490420019B29
:1008C000009AFFF77CFF02AA22A8019B0099FCF77F
:1008D000B1F8C5E734483549C0888842B7D0694681
:1008E00001F07AFC0528B2D0002801D0FBF70CFCFF
:1008F00004A80130FBF7E8FFB2E700004150503A8E
:10090000494E464F3A424C455F4144565F45565426
:100910005F44495245435445440D0A004150503A02
:10092000494E464F3A424C455F4144565F45565406
:100930005F464153540D0A004150503A494E464FCC
:100940003A424C455F4144565F4556545F534C4FC5
:10095000570D0A004150503A494E464F3A424C45D5
:100960005F4144565F4556545F464153545F574874
:100970004954454C4953540D0A0000004150503A27
:10098000494E464F3A424C455F4144565F455654A6
:100990005F534C4F575F57484954454C4953540D8A
:1009A0000A00000038440200E81F0020FFFF00009A
:1009B00030B504460088424D89B011282BD014DC94
:1009C000012824D0022859D010280CD13DA10320A1
:1009D000FFF7E8FE0720FCF71BFF002801D0FBF71C
:1009E00093FBA088A88009B030BD3A283ED051289A
:1009F00048D05528F7D139A10420FFF7D3FEA088AD
:100A0000132176DF0028EED0FBF77EFBEBE7012019
:100A1000FDF72AF8E7E7227A39A10320FFF7C8FE9D
:100A20000020FDF721F80020C043A88000246C704E
:100A30001120FCF7EDFE002801D0FBF765FBA8783C
:100A40000028D0D03848E96801F00EFD002801D018
:100A5000FBF75AFB3448E96801F03EF9062803D059
:100A6000002801D0FBF750FBAC70BCE72FA104209D
:100A7000FFF798FEA088132176DFC3E70021A8883E
:100A800067DFBFE71022A11D04A8FAF759FB6846EB
:100A9000017C0029A7D0007E042803D0062801D0BD
:100AA0000528A0D1022908D0012069460870FF203E
:100AB00083308880A088A8DFA4E70220F5E7000043
:100AC000E81F00204150503A494E464F3A436F6E5E
